:020000021000EC
:10FC000001C009C1112484B7882369F0982F9A7024
:10FC1000923049F081FF02C097EF94BF282E80E018
:10FC2000E5D00C94000082E08093C00088E18093CE
:10FC3000C10086E08093C20080E18093C4008EE022
:10FC4000D5D06C9AFF24F39455E0E52E61E1D62ED1
:10FC5000BFD0813449F4BCD0C82FCED0C13809F010
:10FC6000A6C088E0AED0AAC0823411F484E103C0FB
:10FC7000853419F485E0C8D0A1C0853579F4A8D0C1
:10FC8000082FA6D0182F87FF03C08BB7816002C052
:10FC90008BB78E7F8BBF000F111F8FC0863581F40D
:10FCA00097D08D3449F494D0CBB792D0C170880FDF
:10FCB000C82BCBBF81E001C083E0A6D080E0D2CFCB
:10FCC000843609F048C084D0C82FD0E0DC2FCC2780
:10FCD0007FD0C82B7DD0C82E5E01812C32E0932EC0
:10FCE00077D0F40181934F01F1E0AF1AB108C1F769
:10FCF00083D085E4C81212C0DE5F4801A12C92E0D7
:10FD0000B92EAC16BD0609F459C0F50161915F0129
:10FD1000C40199D0FFEF8F1A9F0AF3CF83E0F80157
:10FD200087BFE89507B600FCFDCFA0E0B2E0F80180
:10FD30008D919D910C01F7BEE89511242297329682
:10FD40002097B1F7F801E7BEE89507B600FCFDCFB4
:10FD5000D7BEE89533C0843719F53AD0C82FD0E024
:10FD6000DC2FCC2735D05E01A82A32D0982E44D083
:10FD7000E801F5E49F120BC0CE015DD022D081E0F6
:10FD8000A81AB1082196A114B104B1F717C0FE0159
:10FD90008791EF0116D0E1E0AE1AB108C1F70EC0AD
:10FDA000853739F429D08EE10CD087E90AD083E079
:10FDB00059CF813511F488E019D01ED080E101D0EF
:10FDC00047CF9091C00095FFFCCF8093C600089567
:10FDD000649A8091C00087FFFCCF8091C00084FDB1
:10FDE00001C0A8958091C600649A0895E0E6F0E00D
:10FDF00098E1908380830895EBDF803219F088E0EA
:10FE0000F5DFFFCF84E1DDCFCF93C82FE1DFC15015
:10FE1000E9F7CF91F1CFFC010A0167BFE895112402
:10FE200007B600FCFDCF667029F0452B19F481E17F
:10FE300087BFE8950895F999FECF92BD81BDF89AE4
:10FE4000992780B50895262FF999FECF1FBA92BD44
:10FE500081BD20BD0FB6F894FA9AF99A0FBE0196AB
:10FE60000895FF56657273696F6E3D382E330044F6
:10FE700065766963653D61746D65676131323830FF
:10FE800000465F4350553D31363030303030304CD5
:10FE900000424947424F4F543D31004275696C74EE
:10FEA0003A46656220203620323032323A30373AD4
:10FEB00031343A353700554152543D3000424155B6
:10FEC000445F524154453D313135323030004C456C
:10FED000443D4534004C45445F444154415F464CE9
:06FEE0004153483D3100D2
:02FFFE000308F6
:040000031000FC00ED
:00000001FF
